:020000040800F2
:1000000078060020CD01000839040008A303000889
:10001000DD0300087F020008B70A000800000000A6
:10002000000000000000000000000000ED050008D6
:100030008302000800000000C10400080D0700084A
:10004000E7010008E7010008E7010008E7010008F0
:10005000E7010008E7010008E7010008E7010008E0
:10006000E7010008E7010008E7010008E7010008D0
:10007000E7010008E7010008E7010008E7010008C0
:10008000E7010008E7010008E7010008E7010008B0
:10009000E7010008E7010008E7010008E7010008A0
:1000A000E7010008E7010008E7010008E701000890
:1000B000E7010008E7010008E7010008E701000880
:1000C000E7010008E7010008E7010008E701000870
:1000D000E701000861080008E7010008E7010008DF
:1000E000E7010008E7010008E7010008E701000850
:1000F000E7010008E7010008E7010008E701000840
:10010000E7010008E7010008E7010008E70100082F
:10011000E7010008E7010008E7010008E70100081F
:10012000E7010008E7010008E7010008E70100080F
:1001300000F002F800F03AF80AA090E8000C8244BF
:100140008344AAF10107DA4501D100F02FF8AFF29C
:10015000090EBAE80F0013F0010F18BFFB1A43F0A5
:1001600001031847500A0000700A0000103A24BF2B
:1001700078C878C1FAD8520724BF30C830C144BF0C
:1001800004680C607047000000230024002500264E
:10019000103A28BF78C1FBD8520728BF30C148BFEA
:1001A0000B6070471FB51FBD10B510BD00F031F8D2
:1001B0001146FFF7F7FF00F081FC00F04FF803B4A1
:1001C000FFF7F2FF03BC00F053F800000948804736
:1001D00009480047FEE7FEE7FEE7FEE7FEE7FEE729
:1001E000FEE7FEE7FEE7FEE704480549054A064B41
:1001F0007047000011070008310100087800002056
:1002000078060020780200207802002070477047AE
:100210007047754600F028F8AE460500694653461B
:1002200020F00700854618B020B5FFF7DDFFBDE8D8
:1002300020404FF000064FF000074FF000084FF04D
:10024000000B21F00701AC46ACE8C009ACE8C009DE
:10025000ACE8C009ACE8C0098D4670470446AFF36E
:1002600000802046FFF7ABFF0048704718000020D1
:1002700001491820ABBEFEE726000200704700BF10
:10028000FEE770472DE9F0410246002500260020D8
:1002900000230024002791F803C00CF00F0591F80B
:1002A00003C00CF0100CBCF1000F03D091F802C099
:1002B0004CEA050591F800C0BCF1000F31D014687C
:1002C00000202BE04FF0010C0CFA00F3B1F800C055
:1002D0000CEA03069E4220D183004FF00F0C0CFA6B
:1002E00003F7BC4305FA03FC4CEA040491F803C08D
:1002F000BCF1280F06D14FF0010C0CFA00FCC2F83B
:1003000014C00AE091F803C0BCF1480F05D14FF0CA
:10031000010C0CFA00FCC2F810C0401C0828D1D314
:100320001460B1F800C0BCF1FF0F34DD5468002048
:100330002EE000F1080C4FF0010808FA0CF3B1F8B8
:1003400000C00CEA03069E4221D183004FF00F0C3F
:100350000CFA03F7BC4305FA03FC4CEA040491F8D9
:1003600003C0BCF1280F05D100F1080C08FA0CF805
:10037000C2F8148091F803C0BCF1480F07D100F116
:10038000080C4FF0010808FA0CF8C2F81080401C65
:100390000828CED35460BDE8F08141617047016107
:1003A000704700BFFEE7000010B54FF480610948B8
:1003B000FFF7F5FF4FF400610648FFF7EEFF4FF43B
:1003C00080510448FFF7EBFF04210348FFF7E7FFE4
:1003D00010BD0000001001400014014000BFFEE706
:1003E00008B50121102000F06DF84FF4EE50ADF883
:1003F000000003208DF8020010208DF803006946EC
:100400000B48FFF73FFF4FF4E2510948FFF7C7FFE2
:100410000121202000F056F80420ADF800006946C4
:100420000448FFF72FFF04210248FFF7B8FF08BD7B
:1004300000100140001401407047000070B5002119
:1004400000230F22C47804B3154C246804F4E0643C
:10045000C4F5E064210AC1F10403CA40447804FAF7
:1004600003F184781440214309010E4C0678A1550C
:10047000047804F01F050124AC4005786D11AD002F
:1004800005F1E025C5F8004109E0047804F01F05F6
:100490000124AC40044D0678761145F8264070BD25
:1004A0000CED00E000E400E080E100E002490143DF
:1004B000024A1160704700000000FA050CED00E0F0
:1004C0007047000029B1064A92690243044B9A61C1
:1004D00004E0034A92698243014B9A61704700002D
:1004E0000010024030B500210022002400232D4DD1
:1004F0006D6805F00C0121B1042905D0082923D12C
:1005000005E0294D056022E0274D05601FE0254DDF
:100510006D6805F47012234D6D6805F48034022572
:1005200005EB92421CB9214D554305600BE01D4D72
:100530006D6805F400351DB11C4D5543056002E0A2
:10054000194D5543056002E0174D056000BF00BF1F
:10055000144D6D6805F0F0010909154D6B5C0568D7
:10056000DD4045600F4D6D6805F4E061090A104DEE
:100570006B5C4568DD4085600A4D6D6805F460512F
:10058000C90A0B4D6B5C4568DD40C560054D6D6863
:1005900005F44041890B074D6B5CC568B5FBF3F56D
:1005A000056130BD0010024000127A0000093D00D4
:1005B000020000201200002010B54FF480610948AD
:1005C000FFF7EDFE4FF400610648FFF7E8FE4FF439
:1005D00080510448FFF7E3FE04210348FFF7DDFEE6
:1005E00010BD00000010014000140140704710B51C
:1005F00000F002F810BD00000CB500200190009042
:100600003348006840F480303149086000BF30480A
:10061000006800F4003000900198401C01900098A0
:1006200018B90198B0F5A06FF1D12948006800F41D
:10063000003010B10120009001E0002000900098EF
:10064000012843D12348006840F010002149086088
:100650000846006820F0030008600846006840F083
:10066000020008601A484068194948600846406816
:1006700048600846406840F480604860084640682A
:1006800020F47C1048600846406840F4E810486058
:100690000846006840F08070086000BF0C480068A1
:1006A00000F000700028F9D00948406820F00300ED
:1006B000074948600846406840F00200486000BFB3
:1006C0000348406800F00C000828F9D10CBD000078
:1006D000001002400020024010B54FF4806109482C
:1006E000FFF75BFE4FF400610648FFF756FE4FF43C
:1006F00080510448FFF751FE04210348FFF74DFEE7
:1007000010BD0000001001400014014070470000BF
:1007100010B51348006840F0010011490860084610
:100720004068104908400E494860084600680E4974
:1007300008400B4908600846006820F480200860E3
:100740000846406820F4FE0048604FF41F008860AF
:10075000FFF74DFF4FF000600449086010BD000036
:10076000001002400000FFF8FFFFF6FE08ED00E079
:1007700010B54FF480610B48FFF70FFE4FF4006196
:100780000848FFF70CFE4FF480510648FFF705FEBE
:1007900004210548FFF703FE4FF480710148FFF77D
:1007A000FEFD10BD001001400014014010B54FF4D3
:1007B00080610B48FFF7F3FD4FF400610848FFF735
:1007C000ECFD4FF480510648FFF7E9FD0421054890
:1007D000FFF7E3FD80210248FFF7E1FD10BD0000B7
:1007E000001001400014014010B54FF480610B4827
:1007F000FFF7D5FD4FF400610848FFF7CEFD4FF439
:1008000080510648FFF7C9FD04210548FFF7C7FDE1
:1008100040210248FFF7C3FD10BD00000010014059
:100820000014014010B54FF480610B48FFF7B5FD8F
:100830004FF400610848FFF7B2FD4FF480510648BD
:10084000FFF7ADFD04210548FFF7A7FD4021024851
:10085000FFF7A5FD10BD000000100140001401408D
:1008600010B540F22551224800F065F801283ED12C
:1008700040F225511E4800F043F840211D48FFF783
:100880008CFD1B4800F012F91B49087008460078DF
:10089000302802D100201949087017480078312803
:1008A00002D101201549087013480078322802D17E
:1008B00002201249087010480078332802D1032022
:1008C0000E4908700C480078342802D104200B49E6
:1008D000087009480078352802D1052007490870BA
:1008E00005480078362802D106200449087010BD5A
:1008F00000380140001001400000002001000020ED
:1009000010B50022002340F66A14A14200D100BFB6
:100910000A1201249440A3B2DC43048010BD21B12B
:10092000828942F40052828104E082894DF6FF738D
:100930001A408281704770B50246002400230025CA
:10094000002040F66A16B14200D100BFC1F3421543
:1009500001F01F03012606FA03F3012D02D1968947
:10096000334006E0022D02D1168A334001E0968A18
:1009700033400C12012606FA04F41688344013B1F1
:100980000CB1012000E0002070BDF0B5034600244A
:1009900000260025002040F66A17B94200D100BFAA
:1009A0001846C1F3421401F01F06012707FA06F5A5
:1009B000012C01D10C3004E0022C01D1103000E0F8
:1009C00014301AB107682F43076002E00768AF438D
:1009D0000760F0BD2DE9F04786B005460E460024BD
:1009E000A24600BFA1460027B08900B100BF2F4634
:1009F0002C8A4CF6FF700440F08804432C82AC89AA
:100A00004EF6F3100440B0883189084371890843D9
:100A10000443AC81AC8A4FF6FF400440B0890443E4
:100A2000AC8201A8FFF75EFD1F48874202D1DDF8C6
:100A300010A001E0DDF80CA0A88900F4004040B14E
:100A40000AEBCA0000EB0A1031684900B0FBF1F86C
:100A500007E00AEBCA0000EB0A1031688900B0FB1E
:100A6000F1F86420B8FBF0F004012009642101FBD7
:100A70001089A88900F4004040B1322000EBC90081
:100A8000B0FBF1F000F00700044308E0322000EB77
:100A900009106421B0FBF1F000F00F0004432C8139
:100AA00006B0BDE8F08700000038014001468888A4
:100AB000C0F30800704700BFFEE7000086B00121C8
:100AC00044F20400FFF7FEFC4FF40070ADF8140090
:100AD00003208DF8160018208DF8170005A932485C
:100AE000FFF7D0FB4FF48060ADF8140004208DF8C0
:100AF000170005A92C48FFF7C5FB4FF416500190CD
:100B00000020ADF80800ADF80A00ADF80C00ADF813
:100B100010000C20ADF80E0001A92448FFF75AFF81
:100B2000012240F225512148FFF72FFF4FF4A0602A
:100B3000FFF7BCFC25208DF8000003208DF8010094
:100B40008DF8020001208DF803006846FFF776FC5F
:100B500001211648FFF7E3FEFFF742FC22E01448AC
:100B6000007807281AD2DFE800F004070A0D1013F6
:100B70001600FFF7B1FD14E0FFF736FE11E0FFF7B6
:100B800051FE0EE0FFF7F4FD0BE0FFF70FFE08E06B
:100B9000FFF70AFC05E0FFF70FFD02E0FFF79CFD01
:100BA00000BF00BFDBE70000000801400038014043
:100BB00001000020D40B00080000002018000000F5
:100BC0006C010008EC0B0008180000206006000013
:100BD0008801000800000000000001020304010277
:0C0BE000030406070809020406080000D0
:0400000508000131BD
:00000001FF
